{
  "contractName": "DataStore",
  "abi": [
    {
      "anonymous": false,
      "inputs": [
        {
          "indexed": false,
          "internalType": "int256",
          "name": "x",
          "type": "int256"
        }
      ],
      "name": "NumChange",
      "type": "event"
    },
    {
      "inputs": [
        {
          "internalType": "int256",
          "name": "x",
          "type": "int256"
        }
      ],
      "name": "setNum",
      "outputs": [],
      "stateMutability": "nonpayable",
      "type": "function"
    },
    {
      "inputs": [],
      "name": "getNum",
      "outputs": [
        {
          "internalType": "int256",
          "name": "",
          "type": "int256"
        }
      ],
      "stateMutability": "view",
      "type": "function",
      "constant": true
    }
  ],
  "bytecode": "0x608060405234801561001057600080fd5b506101a6806100206000396000f3fe608060405234801561001057600080fd5b5060043610610053576000357c01000000000000000000000000000000000000000000000000000000009004806367e0badb146100585780636a5aa5ec14610076575b600080fd5b610060610092565b60405161006d91906100f7565b60405180910390f35b610090600480360381019061008b9190610143565b61009b565b005b60008054905090565b806000819055507f6f7887f467c8597358ebebd0f0382447df8a8dab9fba4a31d78c0844ec6cb9666000546040516100d391906100f7565b60405180910390a150565b6000819050919050565b6100f1816100de565b82525050565b600060208201905061010c60008301846100e8565b92915050565b600080fd5b610120816100de565b811461012b57600080fd5b50565b60008135905061013d81610117565b92915050565b60006020828403121561015957610158610112565b5b60006101678482850161012e565b9150509291505056fea2646970667358221220b0df357043b76a0fa7ae42c06462a30eb577619f165348450c042169f97eda7064736f6c63430008150033",
  "immutableReferences": {},
  "source": "// SPDX-License-Identifier: MIT\r\npragma solidity ^0.8.17;\r\n\r\ncontract DataStore {\r\n    int num;\r\n    event NumChange(int x);\r\n\r\n    function setNum(int x) public {\r\n        num = x;\r\n        emit NumChange(num);\r\n    }\r\n\r\n    function getNum() public view returns (int) {\r\n        return num;\r\n    }\r\n}\r\n",
  "sourcePath": "D:\\web3\\data_store\\contracts\\store.sol",
  "compiler": {
    "name": "solc",
    "version": "0.8.21+commit.d9974bed.Emscripten.clang"
  },
  "schemaVersion": "3.4.16",
  "updatedAt": "2025-07-05T13:41:28.688Z",
  "networkType": "ethereum",
  "devdoc": {
    "kind": "dev",
    "methods": {},
    "version": 1
  },
  "userdoc": {
    "kind": "user",
    "methods": {},
    "version": 1
  }
}